:4000000080673030303030307e3030307e3030307e3030307e3030307e3030307e3030307e3030307e3030307e3030307e3030307e3030307e3030307e3030307e303030f5
:4000400030303030303030303030303030303030303030303030303030303030303030307e3030307e303030711062e38770ef62e33841fefb50014e62e33855f80055f94a
:4000800000711062e00270ef62e338627105627505627905627d057c029350005500013c0001a0053f008ff8500157ce5500003c0000a00b08283f00187509008ff271100f
:4000c00070ef62e000711062e00070ef62e2007c02f18fff50107f30303030303030303030303030303030303030303030303030303030303030303030303030303030306d
:4001000030303030303030303030303030303030303030303030303030303030303030303030303030303030303030303030303030303030303030303030303030303030bf
:4001400030303030303030303030303030303030790e7a217b207800750e762177207400710e7221732070008800895f8a608b008400859f8660870c8000815f8260830045
:400180006029660063056500e600e700d600b000b100b200b333b433b500b600b855b900ba10bb33bc33bd00be00ff61006900600062006733683363006600d100d300d0b0
:4001c00000d200e1ffe200dfffde02dd00ff70ef62000071106200036201fc70ef6203fc620200711062020062030070ef62010062040071106204006205ff70ef6207ff21
:40020000620600711062060062070070ef62050062080071106208006209ff70ef620bff620a007110620a00620b0070ef620900620c007110620c00620d0070ef620f0088
:40024000620e007110620e00620f0070ef620d00621000711062100062110070ef621300621200711062120062130070ef621100621400711062140062150070ef621700c6
:40028000621600711062160062170070ef62150070ef7f7c029a7c01ce7f1070ef500067500157507c02b5500167500157ab7c02b570ef207f380210084f56fc00d0045614
:4002c000fc01182070ef62e30010082839ffa01f4f48fc01a003711054fd18207509001008284f59fd610018207509008fd738fc7f8fff303030303030303030303030301c
:4003000030303030303030303030303030303030303030303030303030303030303030303030303030303030303030303030303030303030303030303030303030303030bd
:40034000303030303030303030303030303030303030303030303030303030303030303030303030303030303030303030303030303030303030303030303030303030307d
:40038000303030303030303030303030303030303030303030303030303030303030303030303030303030303030303030303030303030303030303030303030303030303d
:4003c00030303030303030303030303030303030303030303030303030303030303030303030303030303030303030303030303030303030303030303030303030303030fd
:020000040010ea
:020000040020da
:020000004f6649
:00000001ff
